:040000000128FB2FA9
:100D580041019D14080041011C08F1001B08F00026
:100D68000800031041019D1C03140030093D0800D0
:100D78004F0196019701980199019A019B0108007A
:100D8800D03041019E009F019B019C0101309D00D4
:100D98000800603051018D008F01910103309300EC
:100DA800900192010800F1007108F000F00DF00DBB
:100DB80041011D087006033970069D001D140800C6
:100DC8008631BC2686318631F12686318631CD269C
:100DD80086318631C42686310800143040019800D7
:100DE8003F309A002330920094017E01CE012330D7
:100DF800B800B901CF01BA01D0013730BB003F308C
:100E0800D1003F30BC003F30D20012307D01C3001A
:100E18000800F501F601700871040319142F152F45
:100E2800442FF701F70A212F0130F035F10D890B16
:100E3800192F0130F4007408F707F11F242F252F0C
:100E4800182F0130F535F60D890B262F710873021E
:100E5800031D302F70087202031C332F342F392FD3
:100E68007008F2027108F33B75140130F136F00C8A
:100E7800890B3A2F0130F702031D432F442F252FEA
:100E88007608F1007508F00008008631E4268731FD
:100E980040011A109A141A119A151A129A16181152
:100EA80018160630F9001330F800AE30890B5A2FA7
:100EB800F80B5A2FF90B5A2F40011A149A101A15C9
:100EC8009A111A169A12181518120630F9001330CA
:100ED800F800AE30890B6E2FF80B6E2FF90B6E2FC2
:100EE80005308631D72687318631AC268731863161
:100EF800B5268731003A031D822F832F7B2F863139
:100F0800AF2687317108FB007008FA001430F00032
:100F18000030F1007B08F3007A08F20087310D27D2
:100F280087317008F8007808FC0009307C02031C3F
:100F38009E2F9F2FD52F0830F8007808FC00D52F5A
:100F4800143040018C003F308E00782F143040015F
:100F58008C003E308E00782F143040018C003C30DD
:100F68008E00782F143040018C0038308E00782F96
:100F7800143040018C0030308E00782F143040013E
:100F88008C0020308E00782F143040018C008E01A8
:100F9800782F103040018C00CB2F40018C018E013E
:100FA800782F7C08F800F9017908003A0319DD2F39
:100FB800A42F7808003A0319A42F013A0319AA2F7D
:100FC800033A0319B02F013A0319B62F073A031948
:100FD800BC2F013A0319C22F033A0319C82F013A4B
:100FE8000319CD2F0F3A0319D12FA42F012840013F
:080FF800A001A1014001492FF5
:020000040001F9
:08000000FF3FFF3FFF3FFF3F00
:0A000E00EC3FFF3F9F3FFF3FFF3F25
:00000001FF
